:020000040800F2
:1000000080110020990100086B17000837160008BE
:1000100069170008A5020008E11A000800000000A6
:100020000000000000000000000000006F17000842
:100030003D030008000000006D170008711700085C
:10004000B3010008B3010008B3010008B3010008C0
:10005000B3010008B3010008B3010008B3010008B0
:10006000B3010008B3010008B3010008B3010008A0
:10007000B3010008B3010008B3010008B301000890
:10008000B3010008B3010008B3010008B301000880
:10009000B3010008B3010008B3010008B301000870
:1000A000B3010008B3010008B3010008B301000860
:1000B000B3010008B3010008B3010008B301000850
:1000C000B3010008B3010008B3010008B301000840
:1000D000B3010008D51A0008B3010008B3010008F5
:1000E000B3010008B3010008B3010008B301000820
:1000F000B3010008B3010008B3010008B301000810
:10010000B3010008B3010008B3010008B3010008FF
:10011000B3010008B3010008B3010008B3010008EF
:10012000B3010008B3010008A9020008B3010008E8
:10013000B30100080000000000000000B301000847
:10014000B3010008B3010008B3010008B3010008BF
:10015000B3010008B3010008B5020008B3010008AC
:10016000B3010008B3010008B3010008B30100089F
:10017000B3010008B3010008000000000000000007
:10018000B3010008DFF80CD000F07AF8004800470F
:10019000311C0008801100200648804706480047AF
:1001A000FEE7FEE7FEE7FEE7FEE7FEE7FEE7FEE727
:1001B000FEE7FEE7DD170008850100082DE9F05F86
:1001C0000546002092469B468846064681464024C6
:1001D0001BE0284641464746224600F041F8534678
:1001E0005A46C01A914110D311461846224600F0D3
:1001F00028F82D1A67EB01084F46224601200021FE
:1002000000F01FF817EB00094E41201EA4F1010475
:10021000DFDC484631462A464346BDE8F09FD2B26D
:1002200001E000F8012B491EFBD270470022F6E7DF
:1002300010B513460A4604461946FFF7F0FF20465C
:1002400010BD202A04DB203A00FA02F1002070479A
:100250009140C2F1200320FA03F319439040704704
:10026000202A04DB203A21FA02F00021704721FA0B
:1002700002F3D040C2F12002914008431946704772
:10028000064C074D06E0E06840F0010394E80700E3
:1002900098471034AC42F6D3FFF778FF7C1C000877
:1002A0009C1C0008FEE70000014800F067B9000050
:1002B000C0000020014800F061B9000020010020CA
:1002C00001681823CAB2103AB2FBF3F2054B6FF380
:1002D0000901032A9B5CC36500D9091D8165084695
:1002E000704700005C1C000810B5014600208B69B7
:1002F0008A6A4FF0C07453B1B3F5005F15D072B184
:10030000012A0CD0022A0AD0032A09D104E01AB12A
:10031000012A06D0022A03D1C96AC90100D50120E9
:1003200010BDC96AA142FAD010BD002AF7D0012A37
:10033000F2D0022AF3D0032AF3D010BD704772B670
:10034000FEE770B5040003D094F8200010B104E07B
:10035000012070BD204600F081F82068016841F05E
:100360000101016000F096FB0546052604E000F05F
:1003700091FB401B0A2811D820684068C007F6D0BE
:100380002068016821F00201016000F083FB05464E
:100390000BE000F07FFB401B0A2806D9606A40F49E
:1003A0000030606284F82060D2E7206840688007EF
:1003B000EFD4207E0128206801683DD021F0800123
:1003C0000160607E01282068016838D021F040017A
:1003D0000160A07E01282068016833D021F020014F
:1003E0000160E07E0128206801682ED041F01001F4
:1003F0000160207F01282068016829D021F00801D0
:100400000160607F01282068016824D021F0040188
:100410000160D4E902010843D4E9041211430843FE
:100420006168491E08432168C8610020606201209C
:1004300084F82000002070BD41F08001C0E741F049
:100440004001C5E741F02001CAE721F01001CFE7E4
:1004500041F00801D4E741F00401D9E710B586B0B6
:10046000044614216846FFF7E1FE134920688842DC
:100470001FD112480021026842F000720260006839
:1004800000F0007005900D481038026842F0080234
:1004900002600068022200F0080005900320CDE908
:1004A0000210CDE90002092004906946044800F0DA
:1004B0009FF906B010BD00000064004040380240C3
:1004C000000C02402DE9F0410446876D00F0E2FA8D
:1004D000064694F835000025022806D08020606585
:1004E00084F834500120BDE8F0812068016821F0D3
:1004F000160101602068416921F080014161206C92
:1005000008B9A06C20B12068016821F008010160E1
:100510002068016821F0010101600CE000F0BAFAE6
:10052000801B052807D920206065032084F835004A
:1005300084F83450D7E720680068C007EED194F8FB
:100540005C103F208840B860012084F8350084F8B2
:1005500034500020C7E790F83510022903D08021DD
:10056000416501207047052180F835100068016859
:1005700021F0010101600020704700002DE9F843DF
:1005800004464FF00009CDF8009063484FF416512F
:10059000A56D0068B0FBF1F72E6894F85C10082098
:1005A00000FA01F131420FD021680A6852070BD5D9
:1005B0000A6822F004020A6094F85C108840A8607F
:1005C000606D40F00100606594F85C104FF0010828
:1005D00008FA01F0304208D021684969090604D5BB
:1005E000A860606D40F00200606594F85C10042023
:1005F0008840304208D021680968890704D5A8607E
:10060000606D40F00400606594F85C101020884034
:10061000304218D021680968090714D5A8602068FD
:100620000168490304D50068000308D5A16C07E000
:100630000168C90503D4016821F008010160216C3B
:1006400009B12046884794F85C1020208840304249
:1006500031D021680968C9062DD5A86094F8350005
:1006600005282068016806D0490347D500680003C3
:100670001DD4616C1CE021F0160101602068416905
:1006800021F080014161206C08B9A06C20B1206884
:10069000016821F00801016094F85C103F20884057
:1006A000A86084F8358084F83490216D1FE0E16BF8
:1006B00009B120468847606D00282BD0606DC007C7
:1006C00014D0052084F835002068016821F001016C
:1006D00001600098401C0090B84203D82068006870
:1006E000C007F6D184F8358084F83490E16C002995
:1006F00010D001B02046BDE8F04308470168C905A5
:10070000D5D4016821F01001016084F8358084F8A7
:100710003490CCE7BDE8F8830C0000202DE9F041CF
:10072000044600F0B7F906465CB1022084F83500B3
:10073000002584F834502068016821F0010101602F
:100740000DE00120BDE8F08100F0A4F9801B052830
:1007500005D920206065032084F83500F2E7206881
:100760000068C007F0D12268116820480140D4E930
:1007700001031843D4E9033633431843636918432C
:10078000A3691843E3691843236A18430843616A5D
:10079000042903D1D4E90B131943084310602068DE
:1007A0004069666A20F0070130460E43012704289D
:1007B0000CD1A06A0643E06A40B12046FFF794FDE1
:1007C00020B14020606584F83570BAE72068466142
:1007D0002046FFF775FD94F85C203F219140816031
:1007E000656584F835700020ACE700003F8010F0AC
:1007F0002DE9F04FDFF85092002301260325A9F1DF
:10080000040B85B00F2709F1040AABF1040E12E1C5
:10081000224606FA03F422407ED091F804C00CF080
:10082000030CBCF1010F02D0BCF1020F26D1D0F8AD
:100830000880CDF800804FEA430805FA08FCCDF89F
:100840001080DDF8008028EA0C08CDF80080D1F88F
:100850000CC0DDF810800CFA08FCDDF800804CEAD2
:10086000080CC0F808C0D0F804C02CEA040C0C79BD
:10087000C4F300149C4044EA0C0444600C79E44343
:10088000A40712D0C4684FEA430CCDF808C005FA9B
:100890000CFC24EA0C04D1F80880DDF808C008FA42
:1008A0000CF848EA0408C0F80C800C7904F0030442
:1008B000022C16D1DC0800EB840CCDF808C0DCF863
:1008C00020C05C074FEAD46807FA08F42CEA040C4D
:1008D0000C6904FA08F444EA0C04DDF808C0CCF80A
:1008E000204004684FEA430805FA08FC24EA0C0497
:1008F00091F804C00CF0030C0CFA08FC4CEA040C50
:10090000C0F800C04C6814F4403F05D04F4CD4F8F8
:1009100000C04CF4804C00E08CE0C4F800C02468B7
:1009200023F0030C04F480440094494C6444029482
:10093000D4F808484FEA837C4FEA1C7807FA08FC91
:1009400024EA0C04DFF80CC1604502D14FF0000C22
:1009500039E0DFF804C1604502D14FF0010C32E00C
:10096000DFF8F8C0604502D14FF0020C2BE0DFF851
:10097000F0C0604502D14FF0030C24E0DFF8E4C082
:10098000604502D14FF0040C1DE0DFF8DCC060458B
:1009900002D14FF0050C16E0DFF8D0C0604502D15F
:1009A0004FF0060C0FE0DFF8C8C0604502D14FF0F1
:1009B000070C08E0DFF8BCC0604502D14FF0080C1E
:1009C00001E04FF0090C0CFA08FC4CEA040C029C04
:1009D000C4F808C8D9F80040CC46D1F80480944344
:1009E0005FEAC82800D51443CCF80040DAF800408C
:1009F000D446D1F8048094435FEA882800D5144394
:100A0000CCF80040DBF80040DC46D1F80480944389
:100A10005FEA883800D51443CCF80040DEF8004087
:100A2000F446D1F8048094435FEAC83800D51443F3
:100A3000CCF800405B1C0A681446DA407FF4E8AE4C
:100A400005B0BDE8F08F0000083C0140443802408A
:100A50000030014000000240000402400008024053
:100A6000000C024000100240001402400018024036
:100A7000001C024000200240426921EA02030A40B1
:100A800043EA0241816170470AB1816170470904FC
:100A9000FBE700000148806870470000000000206C
:100AA000024881680278114481607047000000208C
:100AB0000B4810B5016841F400710160016841F410
:100AC00080610160016841F480710160032000F0E1
:100AD0006FF80F2000F006F800F024F8002010BD99
:100AE000003C024070B50D4D04464FF47A712878F1
:100AF000B1FBF0F00A490968B1FBF0F000F010FB1F
:100B000048B9102C07D200222146501E00F030F8C0
:100B100000206C6070BD012070BD0000000000204E
:100B20000C0000200A4808B5016841F480410160CA
:100B3000006800F4804000900548001F016841F003
:100B400080510160006800F08050009008BD0000F6
:100B500044380240002809DB00F01F0201219140C7
:100B60004009800000F1E020C0F80011704700004B
:100B7000F0B40E4B1B680C46C3F30223C3F1070508
:100B8000042D00D90425191D072901D2002300E0F6
:100B9000DB1E012606FA05F1491E214099409E40C0
:100BA000761E16403143F0BC00F0ACBF0CED00E007
:100BB000064900F0070208684FF6FF03184040EAB4
:100BC0000220034A10430860704700000CED00E06B
:100BD0000000FA052DE9F0470E46050063D0DFF866
:100BE0001C81D8F80000F7B200F00F00B04207D225
:100BF00088F80070D8F8000000F00F00B04252D121
:100C000028683F4C810712D5400703D5206840F47F
:100C1000E05020602878000703D5206840F4604049
:100C200020602068A96820F0F00008432060287840
:100C3000C0072BD0324968680839012810D00968EC
:100C4000022810D0890700292DDA216821F003013C
:100C500001432160FFF71EFF814641F2883A0EE012
:100C600009688903EFE78901EDE700BFFFF712FF8D
:100C7000A0EB0901514502D90320BDE8F0872068A7
:100C8000696800F00C00B0EB810FEFD1D8F80010CC
:100C9000404601F00F01B14207D90770006800F02B
:100CA0000F00B04201D00120E7E72878400705D5C2
:100CB0002068E96820F4E0500843206028780007A5
:100CC00006D52068296920F4604040EAC100206010
:100CD00000F04EF82168F02292FAA2F201F0F00141
:100CE000B2FA82F2D140074A515CC8400649086016
:100CF00006480068FFF7F6FE0020BEE7003C024011
:100D000008380240641C00080C0000200400002089
:100D100008480949006809684FF4E05292FAA2F2C3
:100D200001F4E051B2FA82F2D140044A515CC84069
:100D3000704700000C00002008380240741C0008B6
:100D400008480949006809684FF4604292FAA2F223
:100D500001F46041B2FA82F2D140044A515CC840C9
:100D6000704700000C00002008380240741C000886
:100D7000154810B5006810F00C02144813D014493F
:100D8000042A0FD0082A0ED10F4C241F2268236892
:100D900002F03F025B0207D52068C0F38810A0FB79
:100DA000010106E0084610BD2168C1F38811A1FBCE
:100DB00000010023FFF702FA2168C1F30141491C39
:100DC0004900B0FBF1F010BD083802400024F400E7
:100DD00040787D012DE9F84F04007BD0DFF828B37F
:100DE0002078ABF10406C007A6F1040536D0DBF885
:100DF00000105846C1F38101012907D00068C0F3F3
:100E00008100022809D13068400206D52868800395
:100E100024D560680028E0D020E0BB492079891FF4
:100E20000870606868B1FFF735FE074605E000BF4F
:100E3000FFF730FEC01B642876D828688003F7D5FA
:100E40000CE0FFF727FE074605E000BFFFF722FE94
:100E5000C01B6428F0D828688003F7D42078DFF816
:100E6000AC8280074FF0000944D5DBF800105846EB
:100E700011F00C0F4FF0F80A07D00068C0F38100A2
:100E8000022809D13068400206D42868800715D5A9
:100E9000E06801281ED111E0E068E0B10120C8F847
:100EA0000000FFF7F7FD074605E000BFFFF7F2FD82
:100EB000C01B0228C0D828688007F7D528689AFA8E
:100EC000AAF22169B2FA82F220F0F80091400843B8
:100ED00028600FE013E1C8F80090FFF7DBFD07463C
:100EE00005E000BFFFF7D6FDC01B02281CD828680C
:100EF0008007F7D42078000727D5DFF80CA28448B4
:100F000061690AF16C0A81B101210160FFF7C2FD3C
:100F1000074604E0FFF7BEFDC01B022804D8DAF83C
:100F200000008007F6D510E082E0C0F80090FFF7DF
:100F3000B1FD074605E000BFFFF7ACFDC01B02286E
:100F400076D8DAF800008007F6D4207840075FD51D
:100F5000DFF8B4A100270AF1380ADAF80000C0006F
:100F60000BD4DAF8001041F08051CAF80010DAF81A
:100F70000000012700F0805000906648016841F4AD
:100F8000807101600168C90512D4016841F4807163
:100F90000160FFF77FFD009006E000BFFFF77AFDDC
:100FA0000099401A02287ED85A480068C005F5D535
:100FB0005549207A68310870A06888B1FFF76AFD4A
:100FC000009007E0FFF766FD0099411A41F2883072
:100FD000814268D84C48683000688007F2D510E03C
:100FE000FFF758FD009007E0FFF754FD0099411A04
:100FF00041F28830814256D8434868300068800703
:10100000F2D42FB1DAF8001021F08051CAF80010A4
:10101000A069B8B3DBF80010C1F38101022949D0FF
:101020000228C8F8609004D0FFF734FD04463DE084
:1010300039E0FFF72FFD074605E000BFFFF72AFD67
:10104000C01B64282FD828688001F7D4D4E9070191
:101050000843616A94F82C20890141EA026108433F
:10106000A16A2D4A490802EB0141084331682B4A25
:101070001140084330600120C8F86000FFF70AFD06
:10108000044606E03DE000BFFFF704FD001B6428B6
:1010900009D828688001F7D533E000BFFFF7FAFCD4
:1010A000001B642802D90320BDE8F88F286880015E
:1010B000F4D426E00128F7D03068E26900F480011A
:1010C00091421CD1226A00F03F01914217D147F6AC
:1010D000C071626A0140B1EB821F10D1A26A4FF069
:1010E000FF3300F4403103EB5202B1EB024F06D163
:1010F00094F82C1000F07060B0EB016F01D001206B
:10110000D2E70020D0E70000083802400000474244
:10111000800E4742007000400000FFFF0080BCF0DE
:1011200010B5401EB0F1807F01D3012010BD4FF0FB
:10113000E02460610F21601700F0E4FC0020A06152
:1011400007202061002010BD18B5034690F842002A
:10115000202801D0022018BD61B15AB101201863C6
:1011600000205863184600F05DFC0028F3D1196B8D
:10117000012901D0012018BD19680A684968009149
:1011800019680C3151E8002F42F0100241E80024A8
:10119000002CF5D118BD000010B50B49884204D1D0
:1011A0003C220A490848FFF7CFFF08480078652825
:1011B00004D14FF480510648FFF75EFCBDE81040B3
:1011C000024904A000F08EBC78000020140000202A
:1011D000000802402573000070470000F8B5016860
:1011E00004460868CA684B6910F00F0F4FF00005FD
:1011F00059D003F0010602F49077374365D0C10758
:1012000005D0D10503D5616C41F00101616441074E
:1012100005D5D90703D0616C41F0020161648107F3
:1012200005D5D90703D0616C41F004016164010761
:1012300007D502F02001314303D0616C41F0080171
:101240006164616C00293AD0800604D5900602D50D
:10125000204600F0F3FA20684069616CC0F380100A
:10126000090700D460B3204600F0C1FA2068406945
:10127000400621D52068143050E8001F21F04001BD
:1012800040E80012002AF5D1E06BA8B16E49016573
:10129000E06BFFF760F9002811D0E06B016D01B041
:1012A000BDE8F040084783060FD593060DD52046CC
:1012B000BDE8F84000F0C2BA2046FFF78DFFF8BD48
:1012C0002046FFF789FF6564F8BD266B2023012EB9
:1012D0007DD1C6067BD5D60679D5086848680090CA
:1012E00048694FF00206400641D5E16B0868406846
:1012F0000004000CE8D0A28D8242E5D9E085C869DF
:10130000B0F5807F2DD020680C3050E8001F21F40C
:10131000807140E80012002AF5D12068143050E8AE
:10132000001F21F0010140E80012002AF5D12068D9
:10133000143050E8001F21F0400140E80012002A5C
:10134000F5D184F84230256320680C3050E8001F46
:1013500021F0100140E80012002AF5D1E06BFFF700
:10136000B1F86663A08DE18D401A81B22AE0A08DAC
:10137000E18D401A81B2E08D0028A5D00029A3D0CC
:1013800022680C3252E8000F20F4907042E8000707
:10139000002FF5D12068143050E8002F22F0010210
:1013A00040E80027002FF5D184F8423025632068FB
:1013B0000C3050E8002F22F0100240E80023002BF0
:1013C000F5D166632046FFF7E7FEF8BDFFE70506A7
:1013D0002BD5150629D594F841002128F5D1A06810
:1013E000B0F5805F01D12069B0B1206A411C216253
:1013F000216800784860E08C401E0004000CE08406
:10140000E3D12068C16821F08001C1602068C16813
:1014100041F04001C160D8E7206A0088C0F30800AD
:101420004860206A801C2062E5E74006CDD5500662
:10143000CBD5CA68204622F04002CA6084F8413009
:1014400000F0F8F8C1E70000DF17000870B50400ED
:1014500004D094F84100002510B106E0012070BDD1
:1014600084F84050204600F023F8242084F84100FE
:101470002068C16821F40051C160204600F040FAA4
:101480002068016921F4904101612068416921F0DF
:101490002A0141612068C16841F40051C16065645E
:1014A000202084F8410084F842006563002070BD6C
:1014B0002DE9F04186B0064614216846FEF7B6FED7
:1014C0003049306888425AD12F480024016841F0E1
:1014D00010010160006800F0100005902A481438DF
:1014E000016841F0010101600068694600F00100F7
:1014F00005904FF4C06000900220CDE90104032064
:101500000390072004902148FFF772F9214D2048ED
:101510004FF000672860C5E901744FF48068C5E9A1
:1015200003486C61F812AC61C5E9074028466C625B
:10153000FFF7F4F808B1FEF702FFF563AE63154D4F
:10154000134860357830E5E802074020A5E811012E
:10155000104845F814496030AC61EC612C626C6253
:10156000FFF7DCF808B1FEF7EAFEB56300220121BF
:101570002520AE63FFF7FCFA2520FFF7EBFA06B053
:10158000BDE8F081001001404438024000000240F4
:1015900040640240C000002070472DE9F843044633
:1015A00090F841001F4616460D46202802D0022022
:1015B000BDE8F8837DB176B100206064212084F815
:1015C0004100FFF767FAA6848046E684A068B0F57C
:1015D000805F02D003E00120EAE7206910B12E46C7
:1015E00000250EE000260CE08021204600F035FAB0
:1015F000A0B9AEB116F8010B21684860E08C401E1E
:10160000E084E08C43464FF0000200970028EBD1C5
:101610004FF04001204600F020FA30B10320C7E728
:1016200035F8020BC0F30800E6E7202084F84100FB
:101630000020BDE77047FEE70D4810B50B4901607B
:101640001021416000218160C1600161416101762A
:1016500041768176C17601774177FEF772FE0028E8
:1016600003D0BDE81040FEF76ABE10BD0064004024
:10167000500000200D4808B5016841F48001016068
:101680000068002200F48000009001213A20FFF75A
:101690006FFA3A20FFF75EFA002201214620FFF799
:1016A00067FABDE808404620FFF754BA30380240D8
:1016B00070B586B014216846FEF7B8FD1A480024BC
:1016C000016841F080010160016801F0800105912D
:1016D000016841F001010160016801F0010105911B
:1016E000016841F004010160016801F00401059105
:1016F000016841F00801016000680C4E00F008002C
:101700004FF480550590002229463046FFF7BCF97A
:1017100001200095CDE90104694630460394FFF7A6
:1017200067F806B070BD0000303802400008024083
:101730000C4810B50A4901604FF4E13141600021C5
:1017400081600C22C160C0E904128161C161FFF7B0
:101750007DFE002803D0BDE81040FEF7F0BD10BDAF
:101760000010014078000020FEE7FEE77047704758
:10177000FFF796B910B592B030216846FEF756FDD6
:1017800014210CA8FEF752FD0120009001900224C4
:101790008005CDE90640192008904FF4907009901B
:1017A00004200A900B906846FFF714FB08B172B64C
:1017B000FEE70F20CDE90C0400200E904FF4A0505E
:1017C0000F904FF48050109002210CA8FFF702FAFE
:1017D000002801D072B6FEE712B010BD704710B5F8
:1017E000806B0021C185C184FFF7F6FC10BD016844
:1017F0000C3151E8002F22F4907241E80023002BB5
:10180000F5D10168143151E8002F22F0010241E8BE
:101810000023002BF5D1016B012909D101680C319E
:1018200051E8002F22F0100241E80023002BF5D1EF
:10183000202180F8421000210163704708B590F81C
:101840004210222901D0022008BD82684FF4805343
:101850009A4201D1016921B1816A9A421BD04AB1F1
:101860000AE00268816A5268C2F308020A80816A4B
:10187000891C08E0026972B10268526802F07F02B6
:101880000A70816A491C8162C18D491E0904090CD4
:10189000C18503D01BE002685268F1E70168CA689D
:1018A00022F02002CA600168CA6822F48072CA600D
:1018B00001684A6922F001024A61202180F8421041
:1018C00000214163026B012A03D0FFF765FE00206F
:1018D00008BD016301680C3151E8002F22F01002AD
:1018E00041E80023002BF5D101680A68D20602D531
:1018F0000A6849680091818DFFF74EFCE7E7000018
:101900002DE9F041044600680169E26821F4405184
:10191000114301612169A068E269084361691143CB
:1019200022680843D16849F20C6399430143D160AE
:1019300020684169A26921F440711143416137492E
:101940002068884202D03649884202D1FFF7F8F970
:1019500001E0FFF7DDF90246E36964203221B3F5C7
:10196000004F02EBC20303EB021362682BD092001C
:10197000B3FBF2F5B5FBF0F5B3FBF2F66FF0180729
:101980007D4306EB8505B3FBF2F601EB0515B5FBD0
:10199000F0F5B6FBF0F605F0F00505EB0615B3FB28
:1019A000F2F6B3FBF2F2B2FBF0F27A4306EB8202FC
:1019B00001EB0211B1FBF0F000F00F0021682844A8
:1019C0008860BDE8F0815200B3FBF2F6B6FBF0F69A
:1019D000B3FBF2F7B3FBF2F56FF0180C06FB0CF655
:1019E00007EB860601EBC606B5FBF0F5B6FBF0F695
:1019F0002D0106F0F80605EB4605B3FBF2F6B3FB46
:101A0000F2F2B2FBF0F202FB0CF206EB820201EB07
:101A1000C201B1FBF0F000F00700CFE70010014079
:101A20000014014081628285C28500214164222127
:101A300080F84210016921B10168CA6842F48072DD
:101A4000CA6001684A6942F001024A610068C168DF
:101A500041F02001C160002070472DE9F041984617
:101A600017460E460446069D27E0681C25D02DB17A
:101A7000FFF710F8A0EB0800A8421ED920680C3030
:101A800050E8001F21F4D07140E80012002AF5D17F
:101A90002068143050E8001F21F0010140E80012D6
:101AA000002AF5D1202084F8410084F8420000206B
:101AB00084F840000320BDE8F0812068006836EA21
:101AC000000004D00020B842CFD00020F3E701206E
:101AD000F9E700000148FFF781BB00007800002013
:101AE000FEE700000FB4054B10B503A9044A0298A5
:101AF00000F027F810BC5DF814FB0000191C00086A
:101B0000100000200907090E002804DB00F1E02086
:101B100080F80014704700F00F0000F1E02080F81A
:101B2000141D704702E008C8121F08C1002AFAD12C
:101B300070477047002001E001C1121F002AFBD14D
:101B400070472DE9F84F994692468846054600278A
:101B500006E025280AD051464A4690476D1C7F1C56
:101B600028780028F5D13846BDE8F88F002315F80D
:101B7000011F18462E2915D115F8011F04232A2903
:101B80000DD06FF02F022978A1F13004092C09D86B
:101B900000EB800002EB400008446D1CF3E758F8AE
:101BA000040B6D1C2A78002ADDD0632A07D0732A23
:101BB0000FD0104651464A4690477F1C2AE018F83D
:101BC000042B8DF8002000218DF801106E460121B4
:101BD00003E058F8046B4FF0FF315A074FF0000450
:101BE00001D409E0641C84420BDA8C42FADB325DDA
:101BF000002AF7D105E0641C8C42FCDB305D002834
:101C0000F9D1274404E016F8010B51464A469047A3
:101C1000641EF8D26D1CA3E713B54FF0FF33012209
:101C200069460248FFF7B9FC00981CBD7800002007
:101C3000FEF73EFFFFF79EFDFFF73AFDFFF71AFDA7
:101C4000FFF7FAFCFFF774FD3C2202490248FFF758
:101C50007BFAFEE714000020780000200006101632
:101C6000000610160000000000000000010203043E
:101C70000607080900000000010203049C1C00087C
:101C80000000002014000000241B0008B01C000805
:101C9000140000206C110000341B0008010000003B
:101CA00010000000000000000024F400000000000C
:040000050800018569
:00000001FF
